{
  "transactions": [
    {
      "hash": "0x167447a4cce735b0bc6661e8cdc5a4049f4b1abb78f3fa2841bf7e4ea7e3670d",
      "transactionType": "CREATE",
      "contractName": "TokenNetworkRegistry",
      "contractAddress": "0xcf7ed3acca5a467e9e704c703e8d87f634fb0fc9",
      "function": null,
      "arguments": null,
      "transaction": {
        "from": "0xf39fd6e51aad88f6f4ce6ab8827279cfffb92266",
        "gas": "0x122c53",
        "value": "0x0",
        "input": "0x608060405234801561000f575f80fd5b50338061003557604051631e4fbdf760e01b81525f600482015260240160405180910390fd5b61003e81610044565b50610093565b5f80546001600160a01b038381166001600160a01b0319831681178455604051919092169283917f8be0079c531659141344cd1fd0a4f28419497f9722a3daafe3b4186f6b6457e09190a35050565b610f28806100a05f395ff3fe608060405234801561000f575f80fd5b506004361061007a575f3560e01c8063981005a211610058578063981005a2146100dc57806398f44a12146101045780639e45511914610117578063f2fde38b14610142575f80fd5b80630fabd9e71461007e578063715018a6146100c25780638da5cb5b146100cc575b5f80fd5b6100a661008c3660046103c5565b60016020525f90815260409020546001600160a01b031681565b6040516001600160a01b03909116815260200160405180910390f35b6100ca610155565b005b5f546001600160a01b03166100a6565b6100a66100ea3660046103c5565b60026020525f90815260409020546001600160a01b031681565b6100a66101123660046103c5565b610168565b6100a66101253660046103c5565b6001600160a01b039081165f908152600160205260409020541690565b6100ca6101503660046103c5565b610300565b61015d61033d565b6101665f610369565b565b5f6001600160a01b03821661019057604051630f58058360e11b815260040160405180910390fd5b6001600160a01b038281165f9081526001602052604090205416156101d8576040516307f60e1360e01b81526001600160a01b03831660048201526024015b60405180910390fd5b816001600160a01b03166318160ddd6040518163ffffffff1660e01b8152600401602060405180830381865afa925050508015610232575060408051601f3d908101601f1916820190925261022f918101906103f2565b60015b61024f57604051630f58058360e11b815260040160405180910390fd5b505f8260405161025e906103b8565b6001600160a01b039091168152602001604051809103905ff080158015610287573d5f803e3d5ffd5b506001600160a01b038085165f81815260016020908152604080832080549587166001600160a01b03199687168117909155808452600290925280832080549095168417909455925193945084937ff11a7558a113d9627989c5edf26cbd19143b7375248e621c8e30ac9e0847dc3f9190a39392505050565b61030861033d565b6001600160a01b03811661033157604051631e4fbdf760e01b81525f60048201526024016101cf565b61033a81610369565b50565b5f546001600160a01b031633146101665760405163118cdaa760e01b81523360048201526024016101cf565b5f80546001600160a01b038381166001600160a01b0319831681178455604051919092169283917f8be0079c531659141344cd1fd0a4f28419497f9722a3daafe3b4186f6b6457e09190a35050565b610ae98061040a83390190565b5f602082840312156103d5575f80fd5b81356001600160a01b03811681146103eb575f80fd5b9392505050565b5f60208284031215610402575f80fd5b505191905056fe60a060405234801561000f575f80fd5b50604051610ae9380380610ae983398101604081905261002e9161008a565b60017f9b779b17422d0df92223018b32b4d1fa46e071723d6817e2486d003becc55f00556001600160a01b038116610079576040516350a2e21f60e11b815260040160405180910390fd5b6001600160a01b03166080526100b7565b5f6020828403121561009a575f80fd5b81516001600160a01b03811681146100b0575f80fd5b9392505050565b608051610a056100e45f395f81816102160152818161054c015281816105c401526106030152610a055ff3fe608060405234801561000f575f80fd5b50600436106100a6575f3560e01c80637a7ebd7b1161006e5780637a7ebd7b14610157578063ba5b088014610197578063c6de0005146101cc578063d18da8b1146101d6578063db96157d14610208578063fc0c546a14610211575f80fd5b806324f453d1146100aa578063276bfc68146100d057806336bcdb8014610107578063404393671461011c5780635a1047461461014e575b5f80fd5b6100bd6100b8366004610867565b610250565b6040519081526020015b60405180910390f35b6100bd6100de36600461088f565b5f828152602081815260408083206001600160a01b038516845260030190915290205492915050565b61011a6101153660046108b9565b61044b565b005b61013e61012a3660046108eb565b60026020525f908152604090205460ff1681565b60405190151581526020016100c7565b6100bd60015481565b6101886101653660046108eb565b5f60208190529081526040902080546001820154600290920154909160ff169083565b6040516100c793929190610936565b6101ac6101a53660046108eb565b505f908190565b604080516001600160a01b039384168152929091166020830152016100c7565b6100bd62278d0081565b6101fb6101e43660046108eb565b5f9081526020819052604090206001015460ff1690565b6040516100c79190610958565b6100bd610e1081565b6102387f000000000000000000000000000000000000000000000000000000000000000081565b6040516001600160a01b0390911681526020016100c7565b5f6001600160a01b038316610278576040516350a2e21f60e11b815260040160405180910390fd5b336001600160a01b038416036102a1576040516350a2e21f60e11b815260040160405180910390fd5b610e108210806102b3575062278d0082115b156102d15760405163579d2e9960e01b815260040160405180910390fd5b336001600160a01b0384168111156102e557925b6040516bffffffffffffffffffffffff19606083811b8216602084015286901b1660348201525f9060480160408051601f1981840301815291815281516020928301205f818152600290935291205490915060ff161561035857604051630ec0f14960e01b815260040160405180910390fd5b6001546040516bffffffffffffffffffffffff19606085811b8216602084015288901b16603482015260488101919091525f9060680160408051601f198184030181529190528051602090910120600180549192505f6103b78361097a565b90915550505f8281526002602081815260408084208054600160ff1991821681179092558686528584528286208b81558083018054909216909217905592830193909355915187815290916001600160a01b03898116929087169185917f448d27f1fe12f92a2070111296e68fd6ef0a01c0e05bf5819eda0dbcf267bf3d910160405180910390a450925050505b92915050565b61045361072d565b5f8381526020819052604081206001015460ff16600381111561047857610478610902565b0361049657604051630781f76560e21b815260040160405180910390fd5b60015f8481526020819052604090206001015460ff1660038111156104bd576104bd610902565b146104db5760405163f806e9d960e01b815260040160405180910390fd5b5f838152602081815260408083206001600160a01b03861684526003019091529020548082101561051f57604051635972996f60e11b815260040160405180910390fd5b5f61052a8284610992565b6040516370a0823160e01b81523060048201529091505f906001600160a01b037f000000000000000000000000000000000000000000000000000000000000000016906370a0823190602401602060405180830381865afa158015610591573d5f803e3d5ffd5b505050506040513d601f19601f820116820180604052508101906105b591906109a5565b90506105ec6001600160a01b037f00000000000000000000000000000000000000000000000000000000000000001686308561075b565b6040516370a0823160e01b81523060048201525f907f00000000000000000000000000000000000000000000000000000000000000006001600160a01b0316906370a0823190602401602060405180830381865afa158015610650573d5f803e3d5ffd5b505050506040513d601f19601f8201168201806040525081019061067491906109a5565b90505f6106818383610992565b905061068d81866109bc565b5f898152602081815260408083206001600160a01b038c16808552600390910190925290912091909155887f6f073c162678018af03c51e37d715223e124b815e45b64fa9be6a65464f28fe56106e384896109bc565b60408051918252602082018690520160405180910390a3505050505061072860017f9b779b17422d0df92223018b32b4d1fa46e071723d6817e2486d003becc55f0055565b505050565b61073561079b565b60027f9b779b17422d0df92223018b32b4d1fa46e071723d6817e2486d003becc55f0055565b6107698484848460016107df565b61079557604051635274afe760e01b81526001600160a01b038516600482015260240160405180910390fd5b50505050565b7f9b779b17422d0df92223018b32b4d1fa46e071723d6817e2486d003becc55f00546002036107dd57604051633ee5aeb560e01b815260040160405180910390fd5b565b6040516323b872dd60e01b5f8181526001600160a01b038781166004528616602452604485905291602083606481808c5af1925060015f5114831661083b57838315161561082f573d5f823e3d81fd5b5f883b113d1516831692505b604052505f60605295945050505050565b80356001600160a01b0381168114610862575f80fd5b919050565b5f8060408385031215610878575f80fd5b6108818361084c565b946020939093013593505050565b5f80604083850312156108a0575f80fd5b823591506108b06020840161084c565b90509250929050565b5f805f606084860312156108cb575f80fd5b833592506108db6020850161084c565b9150604084013590509250925092565b5f602082840312156108fb575f80fd5b5035919050565b634e487b7160e01b5f52602160045260245ffd5b6004811061093257634e487b7160e01b5f52602160045260245ffd5b9052565b8381526060810161094a6020830185610916565b826040830152949350505050565b602081016104458284610916565b634e487b7160e01b5f52601160045260245ffd5b5f6001820161098b5761098b610966565b5060010190565b8181038181111561044557610445610966565b5f602082840312156109b5575f80fd5b5051919050565b808201808211156104455761044561096656fea2646970667358221220311c6b7a37ef0b504e82b597ee02732ca5a099eb387c9749ec2a9a51ed76647164736f6c63430008140033a2646970667358221220b4b998a55fcfb0d5a71a6bc419168af759fa415e3e03c52b9860288688656a4a64736f6c63430008140033",
        "nonce": "0x3",
        "chainId": "0x7a69"
      },
      "additionalContracts": [],
      "isFixedGasLimit": false
    },
    {
      "hash": "0xce816f88c0c3b9dd9dbf5bbc80521bf72abcab3deb37c7e0a76867d57fc49900",
      "transactionType": "CREATE",
      "contractName": "MockERC20",
      "contractAddress": "0xdc64a140aa3e981100a9beca4e685f962f0cf6c9",
      "function": null,
      "arguments": ["Demo Token", "DEMO", "18"],
      "transaction": {
        "from": "0xf39fd6e51aad88f6f4ce6ab8827279cfffb92266",
        "gas": "0xb56d1",
        "value": "0x0",
        "input": "0x608060405234801562000010575f80fd5b5060405162000bee38038062000bee83398101604081905262000033916200029d565b8282600362000043838262000397565b50600462000052828262000397565b5050506200006733826200007060201b60201c565b50505062000485565b6001600160a01b0382166200009f5760405163ec442f0560e01b81525f60048201526024015b60405180910390fd5b620000ac5f8383620000b0565b5050565b6001600160a01b038316620000de578060025f828254620000d291906200045f565b90915550620001509050565b6001600160a01b0383165f9081526020819052604090205481811015620001325760405163391434e360e21b81526001600160a01b0385166004820152602481018290526044810183905260640162000096565b6001600160a01b0384165f9081526020819052604090209082900390555b6001600160a01b0382166200016e576002805482900390556200018c565b6001600160a01b0382165f9081526020819052604090208054820190555b816001600160a01b0316836001600160a01b03167fddf252ad1be2c89b69c2b068fc378daa952ba7f163c4a11628f55a4df523b3ef83604051620001d291815260200190565b60405180910390a3505050565b634e487b7160e01b5f52604160045260245ffd5b5f82601f83011262000203575f80fd5b81516001600160401b0380821115620002205762000220620001df565b604051601f8301601f19908116603f011681019082821181831017156200024b576200024b620001df565b8160405283815260209250868385880101111562000267575f80fd5b5f91505b838210156200028a57858201830151818301840152908201906200026b565b5f93810190920192909252949350505050565b5f805f60608486031215620002b0575f80fd5b83516001600160401b0380821115620002c7575f80fd5b620002d587838801620001f3565b94506020860151915080821115620002eb575f80fd5b50620002fa86828701620001f3565b925050604084015190509250925092565b600181811c908216806200032057607f821691505b6020821081036200033f57634e487b7160e01b5f52602260045260245ffd5b50919050565b601f82111562000392575f81815260208120601f850160051c810160208610156200036d5750805b601f850160051c820191505b818110156200038e5782815560010162000379565b5050505b505050565b81516001600160401b03811115620003b357620003b3620001df565b620003cb81620003c484546200030b565b8462000345565b602080601f83116001811462000401575f8415620003e95750858301515b5f19600386901b1c1916600185901b1785556200038e565b5f85815260208120601f198616915b82811015620004315788860151825594840194600190910190840162000410565b50858210156200044f57878501515f19600388901b60f8161c191681555b5050505050600190811b01905550565b808201808211156200047f57634e487b7160e01b5f52601160045260245ffd5b92915050565b61075b80620004935f395ff3fe608060405234801561000f575f80fd5b506004361061009b575f3560e01c806340c10f191161006357806340c10f191461011457806370a082311461012957806395d89b4114610151578063a9059cbb14610159578063dd62ed3e1461016c575f80fd5b806306fdde031461009f578063095ea7b3146100bd57806318160ddd146100e057806323b872dd146100f2578063313ce56714610105575b5f80fd5b6100a76101a4565b6040516100b491906105b6565b60405180910390f35b6100d06100cb36600461061c565b610234565b60405190151581526020016100b4565b6002545b6040519081526020016100b4565b6100d0610100366004610644565b61024d565b604051601281526020016100b4565b61012761012236600461061c565b610270565b005b6100e461013736600461067d565b6001600160a01b03165f9081526020819052604090205490565b6100a761027e565b6100d061016736600461061c565b61028d565b6100e461017a36600461069d565b6001600160a01b039182165f90815260016020908152604080832093909416825291909152205490565b6060600380546101b3906106ce565b80601f01602080910402602001604051908101604052809291908181526020018280546101df906106ce565b801561022a5780601f106102015761010080835404028352916020019161022a565b820191905f5260205f20905b81548152906001019060200180831161020d57829003601f168201915b5050505050905090565b5f3361024181858561029a565b60019150505b92915050565b5f3361025a8582856102ac565b61026585858561032d565b506001949350505050565b61027a828261038a565b5050565b6060600480546101b3906106ce565b5f3361024181858561032d565b6102a783838360016103be565b505050565b6001600160a01b038381165f908152600160209081526040808320938616835292905220545f19811015610327578181101561031957604051637dc7a0d960e11b81526001600160a01b038416600482015260248101829052604481018390526064015b60405180910390fd5b61032784848484035f6103be565b50505050565b6001600160a01b03831661035657604051634b637e8f60e11b81525f6004820152602401610310565b6001600160a01b03821661037f5760405163ec442f0560e01b81525f6004820152602401610310565b6102a7838383610490565b6001600160a01b0382166103b35760405163ec442f0560e01b81525f6004820152602401610310565b61027a5f8383610490565b6001600160a01b0384166103e75760405163e602df0560e01b81525f6004820152602401610310565b6001600160a01b03831661041057604051634a1406b160e11b81525f6004820152602401610310565b6001600160a01b038085165f908152600160209081526040808320938716835292905220829055801561032757826001600160a01b0316846001600160a01b03167f8c5be1e5ebec7d5bd14f71427d1e84f3dd0314c0f7b2291e5b200ac8c7c3b9258460405161048291815260200190565b60405180910390a350505050565b6001600160a01b0383166104ba578060025f8282546104af9190610706565b9091555061052a9050565b6001600160a01b0383165f908152602081905260409020548181101561050c5760405163391434e360e21b81526001600160a01b03851660048201526024810182905260448101839052606401610310565b6001600160a01b0384165f9081526020819052604090209082900390555b6001600160a01b03821661054657600280548290039055610564565b6001600160a01b0382165f9081526020819052604090208054820190555b816001600160a01b0316836001600160a01b03167fddf252ad1be2c89b69c2b068fc378daa952ba7f163c4a11628f55a4df523b3ef836040516105a991815260200190565b60405180910390a3505050565b5f6020808352835180828501525f5b818110156105e1578581018301518582016040015282016105c5565b505f604082860101526040601f19601f8301168501019250505092915050565b80356001600160a01b0381168114610617575f80fd5b919050565b5f806040838503121561062d575f80fd5b61063683610601565b946020939093013593505050565b5f805f60608486031215610656575f80fd5b61065f84610601565b925061066d60208501610601565b9150604084013590509250925092565b5f6020828403121561068d575f80fd5b61069682610601565b9392505050565b5f80604083850312156106ae575f80fd5b6106b783610601565b91506106c560208401610601565b90509250929050565b600181811c908216806106e257607f821691505b60208210810361070057634e487b7160e01b5f52602260045260245ffd5b50919050565b8082018082111561024757634e487b7160e01b5f52601160045260245ffdfea2646970667358221220faac3df76f491756dfc2991e9172af5fea6de9dc16d110c9755514d8496b86ee64736f6c63430008140033000000000000000000000000000000000000000000000000000000000000006000000000000000000000000000000000000000000000000000000000000000a00000000000000000000000000000000000000000000000000000000000000012000000000000000000000000000000000000000000000000000000000000000a44656d6f20546f6b656e00000000000000000000000000000000000000000000000000000000000000000000000000000000000000000000000000000000000444454d4f00000000000000000000000000000000000000000000000000000000",
        "nonce": "0x4",
        "chainId": "0x7a69"
      },
      "additionalContracts": [],
      "isFixedGasLimit": false
    },
    {
      "hash": "0x966d100807385f7a4b2c28ccd735bfe9cb5c70747ea028d99660156382ad1679",
      "transactionType": "CALL",
      "contractName": "TokenNetworkRegistry",
      "contractAddress": "0xcf7ed3acca5a467e9e704c703e8d87f634fb0fc9",
      "function": "createTokenNetwork(address)",
      "arguments": ["0xDc64a140Aa3E981100a9becA4E685f962f0cF6C9"],
      "transaction": {
        "from": "0xf39fd6e51aad88f6f4ce6ab8827279cfffb92266",
        "to": "0xcf7ed3acca5a467e9e704c703e8d87f634fb0fc9",
        "gas": "0xe53c7",
        "value": "0x0",
        "input": "0x98f44a12000000000000000000000000dc64a140aa3e981100a9beca4e685f962f0cf6c9",
        "nonce": "0x5",
        "chainId": "0x7a69"
      },
      "additionalContracts": [
        {
          "transactionType": "CREATE",
          "contractName": "TokenNetwork",
          "address": "0xd8058efe0198ae9dd7d563e1b4938dcbc86a1f81",
          "initCode": "0x60a060405234801561000f575f80fd5b50604051610ae9380380610ae983398101604081905261002e9161008a565b60017f9b779b17422d0df92223018b32b4d1fa46e071723d6817e2486d003becc55f00556001600160a01b038116610079576040516350a2e21f60e11b815260040160405180910390fd5b6001600160a01b03166080526100b7565b5f6020828403121561009a575f80fd5b81516001600160a01b03811681146100b0575f80fd5b9392505050565b608051610a056100e45f395f81816102160152818161054c015281816105c401526106030152610a055ff3fe608060405234801561000f575f80fd5b50600436106100a6575f3560e01c80637a7ebd7b1161006e5780637a7ebd7b14610157578063ba5b088014610197578063c6de0005146101cc578063d18da8b1146101d6578063db96157d14610208578063fc0c546a14610211575f80fd5b806324f453d1146100aa578063276bfc68146100d057806336bcdb8014610107578063404393671461011c5780635a1047461461014e575b5f80fd5b6100bd6100b8366004610867565b610250565b6040519081526020015b60405180910390f35b6100bd6100de36600461088f565b5f828152602081815260408083206001600160a01b038516845260030190915290205492915050565b61011a6101153660046108b9565b61044b565b005b61013e61012a3660046108eb565b60026020525f908152604090205460ff1681565b60405190151581526020016100c7565b6100bd60015481565b6101886101653660046108eb565b5f60208190529081526040902080546001820154600290920154909160ff169083565b6040516100c793929190610936565b6101ac6101a53660046108eb565b505f908190565b604080516001600160a01b039384168152929091166020830152016100c7565b6100bd62278d0081565b6101fb6101e43660046108eb565b5f9081526020819052604090206001015460ff1690565b6040516100c79190610958565b6100bd610e1081565b6102387f000000000000000000000000000000000000000000000000000000000000000081565b6040516001600160a01b0390911681526020016100c7565b5f6001600160a01b038316610278576040516350a2e21f60e11b815260040160405180910390fd5b336001600160a01b038416036102a1576040516350a2e21f60e11b815260040160405180910390fd5b610e108210806102b3575062278d0082115b156102d15760405163579d2e9960e01b815260040160405180910390fd5b336001600160a01b0384168111156102e557925b6040516bffffffffffffffffffffffff19606083811b8216602084015286901b1660348201525f9060480160408051601f1981840301815291815281516020928301205f818152600290935291205490915060ff161561035857604051630ec0f14960e01b815260040160405180910390fd5b6001546040516bffffffffffffffffffffffff19606085811b8216602084015288901b16603482015260488101919091525f9060680160408051601f198184030181529190528051602090910120600180549192505f6103b78361097a565b90915550505f8281526002602081815260408084208054600160ff1991821681179092558686528584528286208b81558083018054909216909217905592830193909355915187815290916001600160a01b03898116929087169185917f448d27f1fe12f92a2070111296e68fd6ef0a01c0e05bf5819eda0dbcf267bf3d910160405180910390a450925050505b92915050565b61045361072d565b5f8381526020819052604081206001015460ff16600381111561047857610478610902565b0361049657604051630781f76560e21b815260040160405180910390fd5b60015f8481526020819052604090206001015460ff1660038111156104bd576104bd610902565b146104db5760405163f806e9d960e01b815260040160405180910390fd5b5f838152602081815260408083206001600160a01b03861684526003019091529020548082101561051f57604051635972996f60e11b815260040160405180910390fd5b5f61052a8284610992565b6040516370a0823160e01b81523060048201529091505f906001600160a01b037f000000000000000000000000000000000000000000000000000000000000000016906370a0823190602401602060405180830381865afa158015610591573d5f803e3d5ffd5b505050506040513d601f19601f820116820180604052508101906105b591906109a5565b90506105ec6001600160a01b037f00000000000000000000000000000000000000000000000000000000000000001686308561075b565b6040516370a0823160e01b81523060048201525f907f00000000000000000000000000000000000000000000000000000000000000006001600160a01b0316906370a0823190602401602060405180830381865afa158015610650573d5f803e3d5ffd5b505050506040513d601f19601f8201168201806040525081019061067491906109a5565b90505f6106818383610992565b905061068d81866109bc565b5f898152602081815260408083206001600160a01b038c16808552600390910190925290912091909155887f6f073c162678018af03c51e37d715223e124b815e45b64fa9be6a65464f28fe56106e384896109bc565b60408051918252602082018690520160405180910390a3505050505061072860017f9b779b17422d0df92223018b32b4d1fa46e071723d6817e2486d003becc55f0055565b505050565b61073561079b565b60027f9b779b17422d0df92223018b32b4d1fa46e071723d6817e2486d003becc55f0055565b6107698484848460016107df565b61079557604051635274afe760e01b81526001600160a01b038516600482015260240160405180910390fd5b50505050565b7f9b779b17422d0df92223018b32b4d1fa46e071723d6817e2486d003becc55f00546002036107dd57604051633ee5aeb560e01b815260040160405180910390fd5b565b6040516323b872dd60e01b5f8181526001600160a01b038781166004528616602452604485905291602083606481808c5af1925060015f5114831661083b57838315161561082f573d5f823e3d81fd5b5f883b113d1516831692505b604052505f60605295945050505050565b80356001600160a01b0381168114610862575f80fd5b919050565b5f8060408385031215610878575f80fd5b6108818361084c565b946020939093013593505050565b5f80604083850312156108a0575f80fd5b823591506108b06020840161084c565b90509250929050565b5f805f606084860312156108cb575f80fd5b833592506108db6020850161084c565b9150604084013590509250925092565b5f602082840312156108fb575f80fd5b5035919050565b634e487b7160e01b5f52602160045260245ffd5b6004811061093257634e487b7160e01b5f52602160045260245ffd5b9052565b8381526060810161094a6020830185610916565b826040830152949350505050565b602081016104458284610916565b634e487b7160e01b5f52601160045260245ffd5b5f6001820161098b5761098b610966565b5060010190565b8181038181111561044557610445610966565b5f602082840312156109b5575f80fd5b5051919050565b808201808211156104455761044561096656fea2646970667358221220311c6b7a37ef0b504e82b597ee02732ca5a099eb387c9749ec2a9a51ed76647164736f6c63430008140033000000000000000000000000dc64a140aa3e981100a9beca4e685f962f0cf6c9"
        }
      ],
      "isFixedGasLimit": false
    },
    {
      "hash": "0xd0de60f41d8a587b344e8eb6313876a6c0e3b89692801571e15751c04c91d120",
      "transactionType": "CALL",
      "contractName": "TokenNetwork",
      "contractAddress": "0xd8058efe0198ae9dd7d563e1b4938dcbc86a1f81",
      "function": "openChannel(address,uint256)",
      "arguments": ["0x000000000000000000000000000000000000bEEF", "3600"],
      "transaction": {
        "from": "0xf39fd6e51aad88f6f4ce6ab8827279cfffb92266",
        "to": "0xd8058efe0198ae9dd7d563e1b4938dcbc86a1f81",
        "gas": "0x270bc",
        "value": "0x0",
        "input": "0x24f453d1000000000000000000000000000000000000000000000000000000000000beef0000000000000000000000000000000000000000000000000000000000000e10",
        "nonce": "0x6",
        "chainId": "0x7a69"
      },
      "additionalContracts": [],
      "isFixedGasLimit": false
    },
    {
      "hash": "0x9f21de3585bb1f80554a6fcecb727385de714aa2b0050eaa938d4f8fa7c7ad87",
      "transactionType": "CALL",
      "contractName": "MockERC20",
      "contractAddress": "0xdc64a140aa3e981100a9beca4e685f962f0cf6c9",
      "function": "mint(address,uint256)",
      "arguments": ["0xf39Fd6e51aad88F6F4ce6aB8827279cffFb92266", "1000000000000000000000"],
      "transaction": {
        "from": "0xf39fd6e51aad88f6f4ce6ab8827279cfffb92266",
        "to": "0xdc64a140aa3e981100a9beca4e685f962f0cf6c9",
        "gas": "0xb8ad",
        "value": "0x0",
        "input": "0x40c10f19000000000000000000000000f39fd6e51aad88f6f4ce6ab8827279cfffb9226600000000000000000000000000000000000000000000003635c9adc5dea00000",
        "nonce": "0x7",
        "chainId": "0x7a69"
      },
      "additionalContracts": [],
      "isFixedGasLimit": false
    },
    {
      "hash": "0x8c3bc8afe413d3c1398c233ca337974f1fdb6d337a201b1f92c206539f24434c",
      "transactionType": "CALL",
      "contractName": "MockERC20",
      "contractAddress": "0xdc64a140aa3e981100a9beca4e685f962f0cf6c9",
      "function": "approve(address,uint256)",
      "arguments": ["0xd8058efe0198ae9dD7D563e1b4938Dcbc86A1F81", "1000000000000000000000"],
      "transaction": {
        "from": "0xf39fd6e51aad88f6f4ce6ab8827279cfffb92266",
        "to": "0xdc64a140aa3e981100a9beca4e685f962f0cf6c9",
        "gas": "0x108f4",
        "value": "0x0",
        "input": "0x095ea7b3000000000000000000000000d8058efe0198ae9dd7d563e1b4938dcbc86a1f8100000000000000000000000000000000000000000000003635c9adc5dea00000",
        "nonce": "0x8",
        "chainId": "0x7a69"
      },
      "additionalContracts": [],
      "isFixedGasLimit": false
    },
    {
      "hash": "0x2211d1cb735d95961cd870852b855ae89f7b5253c195f65bb8ef6a2d11a8bca7",
      "transactionType": "CALL",
      "contractName": "TokenNetwork",
      "contractAddress": "0xd8058efe0198ae9dd7d563e1b4938dcbc86a1f81",
      "function": "setTotalDeposit(bytes32,address,uint256)",
      "arguments": [
        "0x4452519080bf6acef3815339895201badc650a368f4221b4a3daa82e1ed5ba34",
        "0xf39Fd6e51aad88F6F4ce6aB8827279cffFb92266",
        "1000000000000000000000"
      ],
      "transaction": {
        "from": "0xf39fd6e51aad88f6f4ce6ab8827279cfffb92266",
        "to": "0xd8058efe0198ae9dd7d563e1b4938dcbc86a1f81",
        "gas": "0x1da26",
        "value": "0x0",
        "input": "0x36bcdb804452519080bf6acef3815339895201badc650a368f4221b4a3daa82e1ed5ba34000000000000000000000000f39fd6e51aad88f6f4ce6ab8827279cfffb9226600000000000000000000000000000000000000000000003635c9adc5dea00000",
        "nonce": "0x9",
        "chainId": "0x7a69"
      },
      "additionalContracts": [],
      "isFixedGasLimit": false
    }
  ],
  "receipts": [
    {
      "status": "0x1",
      "cumulativeGasUsed": "0xdfab6",
      "logs": [
        {
          "address": "0xcf7ed3acca5a467e9e704c703e8d87f634fb0fc9",
          "topics": [
            "0x8be0079c531659141344cd1fd0a4f28419497f9722a3daafe3b4186f6b6457e0",
            "0x0000000000000000000000000000000000000000000000000000000000000000",
            "0x000000000000000000000000f39fd6e51aad88f6f4ce6ab8827279cfffb92266"
          ],
          "data": "0x",
          "blockHash": "0xc0e541ffd6d42c61860e525ca0672b341a77f1e1b066560bd439a7690c02f464",
          "blockNumber": "0x3",
          "blockTimestamp": "0x695ad93a",
          "transactionHash": "0x167447a4cce735b0bc6661e8cdc5a4049f4b1abb78f3fa2841bf7e4ea7e3670d",
          "transactionIndex": "0x0",
          "logIndex": "0x0",
          "removed": false
        }
      ],
      "logsBloom": "0x00000000000000000000000000000000000000000000000000800000000000000000000000000000000000000000080000000000000000000000000000000001000000000000000000000000000000000001000000000000000000000000000000000000020000000000000100000800000000000000000000000000000000400000000008000000000000000000000000000000000000000000000000000000000000000000000000000000000000000000000000000000000000000000000000000000000000200000000000000000000000002000000000000000000020000000000000000000000000000000000000000000000000000000000000000000",
      "type": "0x2",
      "transactionHash": "0x167447a4cce735b0bc6661e8cdc5a4049f4b1abb78f3fa2841bf7e4ea7e3670d",
      "transactionIndex": "0x0",
      "blockHash": "0xc0e541ffd6d42c61860e525ca0672b341a77f1e1b066560bd439a7690c02f464",
      "blockNumber": "0x3",
      "gasUsed": "0xdfab6",
      "effectiveGasPrice": "0x2e1b131a",
      "blobGasPrice": "0x1",
      "from": "0xf39fd6e51aad88f6f4ce6ab8827279cfffb92266",
      "to": null,
      "contractAddress": "0xcf7ed3acca5a467e9e704c703e8d87f634fb0fc9"
    },
    {
      "status": "0x1",
      "cumulativeGasUsed": "0x8b8f0",
      "logs": [
        {
          "address": "0xdc64a140aa3e981100a9beca4e685f962f0cf6c9",
          "topics": [
            "0xddf252ad1be2c89b69c2b068fc378daa952ba7f163c4a11628f55a4df523b3ef",
            "0x0000000000000000000000000000000000000000000000000000000000000000",
            "0x000000000000000000000000f39fd6e51aad88f6f4ce6ab8827279cfffb92266"
          ],
          "data": "0x0000000000000000000000000000000000000000000000000000000000000012",
          "blockHash": "0x210d47a4ebb2319c44d48ee9fb9e9e00beac0422915a76510ca22ab91388f2c7",
          "blockNumber": "0x4",
          "blockTimestamp": "0x695ad93a",
          "transactionHash": "0xce816f88c0c3b9dd9dbf5bbc80521bf72abcab3deb37c7e0a76867d57fc49900",
          "transactionIndex": "0x0",
          "logIndex": "0x0",
          "removed": false
        }
      ],
      "logsBloom": "0x00000000000000000000000000000000000000000000000000000000000000000000000000000000000000000000000000000000000000000000000000000000000000000000000000000008000000000000000000000000000000000000000000000000020000000000000100000800000000000000000000000010000000000000000000000000000000000000000000000000000000000000000000000000000000000000000000000000000000000000000000000000000000000000000000000002000000200000000000000000000000002020000000000000000020000000000000000000000000000000000000000001000000000100000000000000",
      "type": "0x2",
      "transactionHash": "0xce816f88c0c3b9dd9dbf5bbc80521bf72abcab3deb37c7e0a76867d57fc49900",
      "transactionIndex": "0x0",
      "blockHash": "0x210d47a4ebb2319c44d48ee9fb9e9e00beac0422915a76510ca22ab91388f2c7",
      "blockNumber": "0x4",
      "gasUsed": "0x8b8f0",
      "effectiveGasPrice": "0x28b1cd46",
      "blobGasPrice": "0x1",
      "from": "0xf39fd6e51aad88f6f4ce6ab8827279cfffb92266",
      "to": null,
      "contractAddress": "0xdc64a140aa3e981100a9beca4e685f962f0cf6c9"
    },
    {
      "status": "0x1",
      "cumulativeGasUsed": "0x1284d2",
      "logs": [
        {
          "address": "0xcf7ed3acca5a467e9e704c703e8d87f634fb0fc9",
          "topics": [
            "0xf11a7558a113d9627989c5edf26cbd19143b7375248e621c8e30ac9e0847dc3f",
            "0x000000000000000000000000dc64a140aa3e981100a9beca4e685f962f0cf6c9",
            "0x000000000000000000000000d8058efe0198ae9dd7d563e1b4938dcbc86a1f81"
          ],
          "data": "0x",
          "blockHash": "0x210d47a4ebb2319c44d48ee9fb9e9e00beac0422915a76510ca22ab91388f2c7",
          "blockNumber": "0x4",
          "blockTimestamp": "0x695ad93a",
          "transactionHash": "0x966d100807385f7a4b2c28ccd735bfe9cb5c70747ea028d99660156382ad1679",
          "transactionIndex": "0x1",
          "logIndex": "0x1",
          "removed": false
        }
      ],
      "logsBloom": "0x00000000000000000000000000000000000000000000000000000000000000000000000000400000400000000000080000000000000000000000000000000001000000000000000000000000000000000000000000000001000000000000000000000002000000000000000000000000000000000000000000000000000000010004000008000000000000000000000000000000010000000000000000000000000000000000010000000000080000000000000000000000000000000000000000000000000000000000000000000000000000000000000000000000000000000000000000000000000000000000000000000000000000000000000000000000",
      "type": "0x2",
      "transactionHash": "0x966d100807385f7a4b2c28ccd735bfe9cb5c70747ea028d99660156382ad1679",
      "transactionIndex": "0x1",
      "blockHash": "0x210d47a4ebb2319c44d48ee9fb9e9e00beac0422915a76510ca22ab91388f2c7",
      "blockNumber": "0x4",
      "gasUsed": "0x9cbe2",
      "effectiveGasPrice": "0x28b1cd46",
      "blobGasPrice": "0x1",
      "from": "0xf39fd6e51aad88f6f4ce6ab8827279cfffb92266",
      "to": "0xcf7ed3acca5a467e9e704c703e8d87f634fb0fc9",
      "contractAddress": null
    },
    {
      "status": "0x1",
      "cumulativeGasUsed": "0x14491f",
      "logs": [
        {
          "address": "0xd8058efe0198ae9dd7d563e1b4938dcbc86a1f81",
          "topics": [
            "0x448d27f1fe12f92a2070111296e68fd6ef0a01c0e05bf5819eda0dbcf267bf3d",
            "0x4452519080bf6acef3815339895201badc650a368f4221b4a3daa82e1ed5ba34",
            "0x000000000000000000000000000000000000000000000000000000000000beef",
            "0x000000000000000000000000f39fd6e51aad88f6f4ce6ab8827279cfffb92266"
          ],
          "data": "0x0000000000000000000000000000000000000000000000000000000000000e10",
          "blockHash": "0x210d47a4ebb2319c44d48ee9fb9e9e00beac0422915a76510ca22ab91388f2c7",
          "blockNumber": "0x4",
          "blockTimestamp": "0x695ad93a",
          "transactionHash": "0xd0de60f41d8a587b344e8eb6313876a6c0e3b89692801571e15751c04c91d120",
          "transactionIndex": "0x2",
          "logIndex": "0x2",
          "removed": false
        }
      ],
      "logsBloom": "0x00010000000000000000000000000100000000400000000000000000000000000000000000000000000000000000000008000000000000000000200000000000000000000001000000000000000000000000000000014000000000000000000000000000000000000000000100000000000200000000000000800000000000000000000000000000000000000000000000000000000000000040000000000000000000000000000000000000000000000000000000000000000000000000000000000000000000200000000000000000000000002000000000000008000000000000000000000000000000000000000000000000000000000000000000000000",
      "type": "0x2",
      "transactionHash": "0xd0de60f41d8a587b344e8eb6313876a6c0e3b89692801571e15751c04c91d120",
      "transactionIndex": "0x2",
      "blockHash": "0x210d47a4ebb2319c44d48ee9fb9e9e00beac0422915a76510ca22ab91388f2c7",
      "blockNumber": "0x4",
      "gasUsed": "0x1c44d",
      "effectiveGasPrice": "0x28b1cd46",
      "blobGasPrice": "0x1",
      "from": "0xf39fd6e51aad88f6f4ce6ab8827279cfffb92266",
      "to": "0xd8058efe0198ae9dd7d563e1b4938dcbc86a1f81",
      "contractAddress": null
    },
    {
      "status": "0x1",
      "cumulativeGasUsed": "0x85b4",
      "logs": [
        {
          "address": "0xdc64a140aa3e981100a9beca4e685f962f0cf6c9",
          "topics": [
            "0xddf252ad1be2c89b69c2b068fc378daa952ba7f163c4a11628f55a4df523b3ef",
            "0x0000000000000000000000000000000000000000000000000000000000000000",
            "0x000000000000000000000000f39fd6e51aad88f6f4ce6ab8827279cfffb92266"
          ],
          "data": "0x00000000000000000000000000000000000000000000003635c9adc5dea00000",
          "blockHash": "0xc6786e311896d9cbf6c9e9c1e7ec07106333ee4b851c9c43067bea74c729a292",
          "blockNumber": "0x5",
          "blockTimestamp": "0x695ad93a",
          "transactionHash": "0x9f21de3585bb1f80554a6fcecb727385de714aa2b0050eaa938d4f8fa7c7ad87",
          "transactionIndex": "0x0",
          "logIndex": "0x0",
          "removed": false
        }
      ],
      "logsBloom": "0x00000000000000000000000000000000000000000000000000000000000000000000000000000000000000000000000000000000000000000000000000000000000000000000000000000008000000000000000000000000000000000000000000000000020000000000000100000800000000000000000000000010000000000000000000000000000000000000000000000000000000000000000000000000000000000000000000000000000000000000000000000000000000000000000000000002000000200000000000000000000000002020000000000000000020000000000000000000000000000000000000000001000000000100000000000000",
      "type": "0x2",
      "transactionHash": "0x9f21de3585bb1f80554a6fcecb727385de714aa2b0050eaa938d4f8fa7c7ad87",
      "transactionIndex": "0x0",
      "blockHash": "0xc6786e311896d9cbf6c9e9c1e7ec07106333ee4b851c9c43067bea74c729a292",
      "blockNumber": "0x5",
      "gasUsed": "0x85b4",
      "effectiveGasPrice": "0x240efded",
      "blobGasPrice": "0x1",
      "from": "0xf39fd6e51aad88f6f4ce6ab8827279cfffb92266",
      "to": "0xdc64a140aa3e981100a9beca4e685f962f0cf6c9",
      "contractAddress": null
    },
    {
      "status": "0x1",
      "cumulativeGasUsed": "0x13adf",
      "logs": [
        {
          "address": "0xdc64a140aa3e981100a9beca4e685f962f0cf6c9",
          "topics": [
            "0x8c5be1e5ebec7d5bd14f71427d1e84f3dd0314c0f7b2291e5b200ac8c7c3b925",
            "0x000000000000000000000000f39fd6e51aad88f6f4ce6ab8827279cfffb92266",
            "0x000000000000000000000000d8058efe0198ae9dd7d563e1b4938dcbc86a1f81"
          ],
          "data": "0x00000000000000000000000000000000000000000000003635c9adc5dea00000",
          "blockHash": "0xc6786e311896d9cbf6c9e9c1e7ec07106333ee4b851c9c43067bea74c729a292",
          "blockNumber": "0x5",
          "blockTimestamp": "0x695ad93a",
          "transactionHash": "0x8c3bc8afe413d3c1398c233ca337974f1fdb6d337a201b1f92c206539f24434c",
          "transactionIndex": "0x1",
          "logIndex": "0x1",
          "removed": false
        }
      ],
      "logsBloom": "0x00000000000000000000000000000000000000000000000000000000000000000000000000000000000000000000000000000000000000000000000000200000000000000000000000000000000000000000000000000000000000000000000000000000000000000000000100000000000000000000000000000000000000010000000000000000000000000000000000000000010000000000000000000000020000000000010000000000000000000000000000000000000000000000000000000000000000200000000000000000000000002020000000000000000000000010000000000000000000000000000000000001000000000100000000000000",
      "type": "0x2",
      "transactionHash": "0x8c3bc8afe413d3c1398c233ca337974f1fdb6d337a201b1f92c206539f24434c",
      "transactionIndex": "0x1",
      "blockHash": "0xc6786e311896d9cbf6c9e9c1e7ec07106333ee4b851c9c43067bea74c729a292",
      "blockNumber": "0x5",
      "gasUsed": "0xb52b",
      "effectiveGasPrice": "0x240efded",
      "blobGasPrice": "0x1",
      "from": "0xf39fd6e51aad88f6f4ce6ab8827279cfffb92266",
      "to": "0xdc64a140aa3e981100a9beca4e685f962f0cf6c9",
      "contractAddress": null
    },
    {
      "status": "0x1",
      "cumulativeGasUsed": "0x29226",
      "logs": [
        {
          "address": "0xdc64a140aa3e981100a9beca4e685f962f0cf6c9",
          "topics": [
            "0xddf252ad1be2c89b69c2b068fc378daa952ba7f163c4a11628f55a4df523b3ef",
            "0x000000000000000000000000f39fd6e51aad88f6f4ce6ab8827279cfffb92266",
            "0x000000000000000000000000d8058efe0198ae9dd7d563e1b4938dcbc86a1f81"
          ],
          "data": "0x00000000000000000000000000000000000000000000003635c9adc5dea00000",
          "blockHash": "0xc6786e311896d9cbf6c9e9c1e7ec07106333ee4b851c9c43067bea74c729a292",
          "blockNumber": "0x5",
          "blockTimestamp": "0x695ad93a",
          "transactionHash": "0x2211d1cb735d95961cd870852b855ae89f7b5253c195f65bb8ef6a2d11a8bca7",
          "transactionIndex": "0x2",
          "logIndex": "0x2",
          "removed": false
        },
        {
          "address": "0xd8058efe0198ae9dd7d563e1b4938dcbc86a1f81",
          "topics": [
            "0x6f073c162678018af03c51e37d715223e124b815e45b64fa9be6a65464f28fe5",
            "0x4452519080bf6acef3815339895201badc650a368f4221b4a3daa82e1ed5ba34",
            "0x000000000000000000000000f39fd6e51aad88f6f4ce6ab8827279cfffb92266"
          ],
          "data": "0x00000000000000000000000000000000000000000000003635c9adc5dea0000000000000000000000000000000000000000000000000003635c9adc5dea00000",
          "blockHash": "0xc6786e311896d9cbf6c9e9c1e7ec07106333ee4b851c9c43067bea74c729a292",
          "blockNumber": "0x5",
          "blockTimestamp": "0x695ad93a",
          "transactionHash": "0x2211d1cb735d95961cd870852b855ae89f7b5253c195f65bb8ef6a2d11a8bca7",
          "transactionIndex": "0x2",
          "logIndex": "0x3",
          "removed": false
        }
      ],
      "logsBloom": "0x00000000000000000000000000000100000000400000000000000000000000000000000100000000000000000000000008000000000000000000200000000000000000000000000000000008000000000000000000000000000000000000000000000000000000000000000100000000000000000000000000800010000000010000000000000000000000000000000000000000010000000000000000000000000000000000010000000000008000000000000000000000000000000000000000000002000000200000000000000000000000002020000000000008000000000000000000000000000000000000010000000001000000000100000000000000",
      "type": "0x2",
      "transactionHash": "0x2211d1cb735d95961cd870852b855ae89f7b5253c195f65bb8ef6a2d11a8bca7",
      "transactionIndex": "0x2",
      "blockHash": "0xc6786e311896d9cbf6c9e9c1e7ec07106333ee4b851c9c43067bea74c729a292",
      "blockNumber": "0x5",
      "gasUsed": "0x15747",
      "effectiveGasPrice": "0x240efded",
      "blobGasPrice": "0x1",
      "from": "0xf39fd6e51aad88f6f4ce6ab8827279cfffb92266",
      "to": "0xd8058efe0198ae9dd7d563e1b4938dcbc86a1f81",
      "contractAddress": null
    }
  ],
  "libraries": [],
  "pending": [],
  "returns": {},
  "timestamp": 1767561530644,
  "chain": 31337,
  "commit": "502ff67"
}
